:10400000E4FDFC903200740CF0E4FBFA7A0C7BB80F
:10401000900100E4F0A3DBFCDAFAE4FCFDFE780595
:10402000C333CE33CED8F9FDAC062400F582EC3490
:1040300001F5837488F074012DF582EC3401F58369
:104040007488F074022DF582EC3401F5837488F0E5
:1040500074032DF582EC3401F5837488F074042D1B
:10406000F582EC3401F5837488F074052DF582EC4B
:104070003401F5837488F074062DF582EC3401F573
:10408000837488F074072DF582EC3401F58374880D
:10409000F074082DF582EC3401F5837488F074090E
:1040A0002DF582EC3401F5837411F0740A2DF5823C
:1040B000EC3401F5837411F0740B2DF582EC3401AE
:1040C000F5837411F0740C2DF582EC3401F58374D2
:1040D00011F0740D2DF582EC3401F5837411F07438
:1040E0000E2DF582EC3401F5837411F0740F2DF56B
:1040F00082EC3401F5837411F074102DF582EC34E8
:1041000001F5837411F074112DF582EC3401F583FF
:104110007411F07C007D01EDAE047805C333CE331D
:10412000CED8F9FDAC062400F582EC3401F5837499
:1041300099F074012DF582EC3401F5837499F074D3
:10414000022DF582EC3401F5837499F074032DF59A
:1041500082EC3401F5837499F074042DF582EC340B
:1041600001F5837499F074052DF582EC3401F58323
:104170007499F074062DF582EC3401F5837499F08E
:1041800074072DF582EC3401F5837499F074082DD1
:10419000F582EC3401F583749CF074092DF582EC02
:1041A0003401F5837499F0740A2DF582EC3401F52D
:1041B000837499F0740B2DF582EC3401F5837499B6
:1041C000F0740C2DF582EC3401F5837499F0740DC4
:1041D0002DF582EC3401F5837499F0740E2DF5827F
:1041E000EC3401F5837499F0740F2DF582EC3401F1
:1041F000F5837499F074102DF582EC3401F5837415
:1042000099F074112DF582EC3401F5837429F07C5A
:10421000007D02EDAE047805C333CE33CED8F9FD70
:10422000AC062400F582EC3401F58374BBF0740114
:104230002DF582EC3401F58374BBF074022DF58208
:10424000EC3401F58374BBF074032DF582EC34017A
:10425000F58374BBF074042DF582EC3401F583749E
:10426000BBF074052DF582EC3401F58374BBF0745A
:10427000062DF582EC3401F58374BBF074072DF53F
:1042800082EC3401F58374BBF074082DF582EC34B4
:1042900001F58374BEF074092DF582EC3401F583C9
:1042A00074DDF0740A2DF582EC3401F58374DDF0D1
:1042B000740B2DF582EC3401F58374DDF0740C2D54
:1042C000F582EC3401F58374DDF0740D2DF582EC8C
:1042D0003401F58374DDF0740E2DF582EC3401F5B4
:1042E0008374DDF0740F2DF582EC3401F58374DDF9
:1042F000F074102DF582EC3401F58374DDF0741147
:104300002DF582EC3401F583742DF0741A2DF582AD
:10431000EC3401F58374A0F0741B2DF582EC3401AC
:10432000F58374AAF0741C2DF582EC3401F58374C6
:10433000AAF0741D2DF582EC3401F58374AAF07493
:104340001E2DF582EC3401F58374AAF0741F2DF54F
:1043500082EC3401F58374AAF07A007B03EBAE02A1
:104360007805C333CE33CED8F9FDAC062400F582F0
:10437000EC3401F58374FFF074012DF582EC340107
:10438000F58374FFF074022DF582EC3401F583742B
:10439000FFF074032DF582EC3401F58374FFF074A3
:1043A000042DF582EC3401F58374FFF074052DF5CE
:1043B00082EC3401F58374FFF074062DF582EC3441
:1043C00001F58374FFF074072DF582EC3401F58359
:1043D00074FFF074082DF582EC3401F58374FFF05E
:0643E00074092DF582ECCA
:1043E6003401F58374FFF0740A2DF582EC3401F57F
:1043F6008374FFF0740B2DF582EC3401F58374FFA2
:10440600F0740C2DF582EC3401F58374FFF0740D15
:104416002DF582EC3401F58374FFF0740E2DF582D0
:10442600EC3401F58374FFF0740F2DF582EC340142
:10443600F58374FFF074102DF582EC3401F5837466
:10444600FFF074112DF582EC3401F583743FF0749E
:104456001A2DF582EC3401F58374E0F0741B2DF50A
:1044660082EC3401F58374FFF0741C2DF582EC3474
:1044760001F58374FFF0741D2DF582EC3401F5838C
:1044860074FFF0741E2DF582EC3401F58374FFF091
:10449600741F2DF582EC3401F58374FFF00BBB001D
:1044A600010AEB64054A600302435D7C007D06ED6C
:1044B600AE047805C333CE33CED8F9FDAC0624114D
:1044C600F582EC3401F5837440F074122DF582EC1C
:1044D6003401F5837408F074132DF582EC3401F57C
:1044E600837421F074142DF582EC3401F583748401
:1044F600F074152DF582EC3401F5837410F0741602
:104506002DF582EC3401F5837442F074172DF58293
:10451600EC3401F5837408F074182DF582EC34013F
:10452600F5837421F074192DF582EC3401F583744A
:1045360084F0741A2DF582EC3401F5837410F07C46
:10454600007D07EDAE047805C333CE33CED8F9FD32
:10455600AC062411F582EC3401F58374C0F07412B4
:104566002DF582EC3401F5837418F074132DF58261
:10457600EC3401F5837463F074142DF582EC340188
:10458600F583748CF074152DF582EC3401F5837483
:1045960031F074162DF582EC3401F58374C6F0748F
:1045A600172DF582EC3401F5837418F074182DF587
:1045B60082EC3401F5837463F074192DF582EC34C2
:1045C60001F583748CF0741A2DF582EC3401F583B1
:1045D60074F1F0741B2DF582EC3401F58374FFF051
:1045E600741C2DF582EC3401F58374FFF0741D2DD7
:1045F600F582EC3401F58374FFF0741E2DF582EC20
:104606003401F58374FFF0741F2DF582EC3401F547
:104616008374FFF07C007D08EDAE047805C333CECD
:1046260033CED8F9FDAC062411F582EC3401F583BE
:1046360074C0F074122DF582EC3401F5837439F0F0
:1046460074132DF582EC3401F58374E7F074142DA0
:10465600F582EC3401F583749CF074152DF582EC2B
:104666003401F5837473F074162DF582EC3401F57C
:104676008374CEF074172DF582EC3401F58374390A
:10468600F074182DF582EC3401F58374E7F0741993
:104696002DF582EC3401F583749CF0741A2DF582A5
:1046A600EC3401F5837413F07C007D09EDAE0478DB
:1046B60005C333CE33CED8F9FDAC062411F582EC12
:1046C6003401F58374C0F074122DF582EC3401F5D3
:1046D60083747BF074132DF582EC3401F58374EF4B
:1046E600F074142DF582EC3401F58374BDF0741565
:1046F6002DF582EC3401F58374F7F074162DF582EE
:10470600EC3401F58374DEF074172DF582EC340178
:10471600F583747BF074182DF582EC3401F58374FF
:10472600EFF074192DF582EC3401F58374BDF07445
:104736001A2DF582EC3401F58374F7F0741B2DF510
:1047460082EC3401F58374FFF0741C2DF582EC3491
:1047560001F58374FFF0741D2DF582EC3401F583A9
:1047660074FFF0741E2DF582EC3401F58374FFF0AE
:10477600741F2DF582EC3401F58374FFF07C007D07
:104786000AEDAE047805C333CE33CED8F9FDAC06B8
:104796002411F582EC3401F58374C0F074122DF502
:1047A60082EC3401F58374FFF074132DF582EC343A
:1047B60001F58374FFF074142DF582EC3401F58352
:0647C60074FFF074152DD4
:1047CC00F582EC3401F58374FFF074162DF582EC50
:1047DC003401F58374FFF074172DF582EC3401F578
:1047EC008374FFF074182DF582EC3401F58374FF9B
:1047FC00F074192DF582EC3401F58374FFF0741A02
:10480C002DF582EC3401F583741FF07C007D0BEDEB
:10481C00AE047805C333CE33CED8F9FDAC062411E3
:10482C00F582EC3401F58374C0F074122DF582EC32
:10483C003401F58374FFF074132DF582EC3401F51B
:10484C008374FFF074142DF582EC3401F58374FF3E
:10485C00F074152DF582EC3401F58374FFF07416A9
:10486C002DF582EC3401F58374FFF074172DF5826D
:10487C00EC3401F58374FFF074182DF582EC3401DF
:10488C00F58374FFF074192DF582EC3401F5837403
:10489C00FFF0741A2DF582EC3401F58374FFF0747B
:1048AC001B2DF582EC3401F58374FFF0741C2DF58F
:1048BC0082EC3401F58374FFF0741D2DF582EC3419
:1048CC0001F58374FFF0741E2DF582EC3401F58331
:1048DC0074FFF0AF05741F2FF582EE3401F583746D
:0848EC00FFF05390BF80FB2296
:030000000248F4BF
:0C48F400787FE4F6D8FD758107024000D3
:00000001FF
