:10400000E4FDFC9032007402F0E4FFFE7E0C7FB809
:10401000900100E4F0A3DFFCDEFA7E0B7FB8E4FC45
:10402000FDFE7805C333CE33CED8F9FDAC062400AF
:10403000F582EC3401F58374FFF074012DF582EC08
:104040003401F58374FFF074022DF582EC3401F530
:104050008374FFF074032DF582EC3401F58374FF53
:10406000F074042DF582EC3401F58374FFF07405CF
:104070002DF582EC3401F58374FFF074062DF58282
:10408000EC3401F58374FFF074072DF582EC3401F4
:10409000F58374FFF074082DF582EC3401F5837418
:1040A000FFF074092DF582EC3401F58374FFF07490
:1040B0000A2DF582EC3401F58374FFF0740B2DF5B5
:1040C00082EC3401F58374FFF0740C2DF582EC342E
:1040D00001F58374FFF0740D2DF582EC3401F58346
:1040E00074FFF0740E2DF582EC3401F58374FFF04B
:1040F000740F2DF582EC3401F58374FFF074102DEC
:10410000F582EC3401F58374FFF074112DF582EC27
:104110003401F58374FFF074122DF582EC3401F54F
:104120008374FFF074132DF582EC3401F58374FF72
:10413000F074142DF582EC3401F58374FFF07415DE
:104140002DF582EC3401F58374FFF074162DF582A1
:10415000EC3401F58374FFF074172DF582EC340113
:10416000F58374FFF074182DF582EC3401F5837437
:10417000FFF074192DF582EC3401F58374FFF074AF
:104180001A2DF582EC3401F58374FFF0741B2DF5C4
:1041900082EC3401F58374E1F0741C2DF582EC346B
:1041A00001F58374FFF0741D2DF582EC3401F58365
:1041B00074FFF0741E2DF582EC3401F58374FFF06A
:1041C000AF05741F2FF582EE3401F58374FFF08084
:0241D000FE22CD
:030000000241D2E8
:0C41D200787FE4F6D8FD758107024000FC
:00000001FF
