:10400000E4FDFC9032007416F0E4FBFA7A0C7BB805
:10401000900100E4F0A3DBFCDAFAE4FCFDFE780595
:10402000C333CE33CED8F9FDAC062400F582EC3490
:1040300001F58374FFF0741A2DF582EC3401F583D9
:1040400074E0F0741B2DF582EC3401F58374FFF0FD
:10405000741C2DF582EC3401F58374FFF0741D2D72
:10406000F582EC3401F58374FFF0741E2DF582ECBB
:104070003401F58374FFF0741F2DF582EC3401F5E3
:104080008374FFF07C007D01EDAE047805C333CE70
:1040900033CED8F9FDAC062400F582EC3401F5836B
:1040A00074FFF074012DF582EC3401F58374FFF098
:1040B000741A2DF582EC3401F58374E0F0741B2D35
:1040C000F582EC3401F58374FFF0741C2DF582EC5D
:1040D0003401F58374FFF0741D2DF582EC3401F585
:1040E0008374FFF0741E2DF582EC3401F58374FFA8
:1040F000F0741F2DF582EC3401F58374FFF07C0021
:104100007D02EDAE047805C333CE33CED8F9FDACD5
:10411000062400F582EC3401F58374FFF074012D60
:10412000F582EC3401F58374FFF074022DF582EC16
:104130003401F58374FFF0741A2DF582EC3401F527
:104140008374E0F0741B2DF582EC3401F58374FF69
:10415000F0741C2DF582EC3401F58374FFF0741DAE
:104160002DF582EC3401F58374FFF0741E2DF58279
:10417000EC3401F58374FFF0741F2DF582EC3401EB
:10418000F58374FFF07C007D03EDAE047805C33346
:10419000CE33CED8F9FDAC062400F582EC3401F51F
:1041A0008374FFF074012DF582EC3401F58374FF04
:1041B000F074022DF582EC3401F58374FFF0740382
:1041C0002DF582EC3401F58374FFF0741A2DF5821D
:1041D000EC3401F58374E0F0741B2DF582EC3401AE
:1041E000F58374FFF0741C2DF582EC3401F58374B3
:1041F000FFF0741D2DF582EC3401F58374FFF0742B
:104200001E2DF582EC3401F58374FFF0741F2DF53B
:1042100082EC3401F58374FFF07C007D04EDAE0484
:104220007805C333CE33CED8F9FDAC062400F58231
:10423000EC3401F58374FFF074012DF582EC340148
:10424000F58374FFF074022DF582EC3401F583746C
:10425000FFF074032DF582EC3401F58374FFF074E4
:10426000042DF582EC3401F58374FFF0741A2DF5FA
:1042700082EC3401F58374E0F0741B2DF582EC348C
:1042800001F58374FFF0741C2DF582EC3401F58385
:1042900074FFF0741D2DF582EC3401F58374FFF08A
:1042A000741E2DF582EC3401F58374FFF0741F2D1C
:1042B000F582EC3401F58374FFF07C007D05EDAEF2
:1042C00004F8C333CE33CED8F9FDAC062400F58212
:1042D000EC3401F58374FFF074012DF582EC3401A8
:1042E000F58374FFF074022DF582EC3401F58374CC
:1042F000FFF074032DF582EC3401F58374FFF07444
:10430000042DF582EC3401F58374FFF074052DF56E
:1043100082EC3401F58374FFF0741A2DF582EC34CD
:1043200001F58374E0F0741B2DF582EC3401F58304
:1043300074FFF0741C2DF582EC3401F58374FFF0EA
:10434000741D2DF582EC3401F58374FFF0741E2D7D
:10435000F582EC3401F58374FFF0741F2DF582ECC7
:104360003401F58374FFF07C007D06EDAE04780522
:10437000C333CE33CED8F9FDAC062400F582EC343D
:1043800001F58374FFF074012DF582EC3401F5839F
:1043900074FFF074022DF582EC3401F58374FFF0A4
:1043A00074032DF582EC3401F58374FFF074042D51
:1043B000F582EC3401F58374FFF074052DF582EC81
:1043C0003401F58374FFF074062DF582EC3401F5A9
:1043D0008374FFF0741A2DF582EC3401F58374E0D8
:0643E000F0741B2DF582B4
:1043E600EC3401F58374FFF0741C2DF582EC340176
:1043F600F58374FFF0741D2DF582EC3401F583749A
:10440600FFF0741E2DF582EC3401F58374FFF07411
:104416001F2DF582EC3401F58374FFF07C007D07D7
:10442600EDAE047805C333CE33CED8F9FDAC062401
:1044360000F582EC3401F58374FFF074012DF582EA
:10444600EC3401F58374FFF074022DF582EC34012F
:10445600F58374FFF074032DF582EC3401F5837453
:10446600FFF074042DF582EC3401F58374FFF074CB
:10447600052DF582EC3401F58374FFF074062DF5F5
:1044860082EC3401F58374FFF074072DF582EC3469
:1044960001F58374FFF0741A2DF582EC3401F5836F
:1044A60074E0F0741B2DF582EC3401F58374FFF093
:1044B600741C2DF582EC3401F58374FFF0741D2D08
:1044C600F582EC3401F58374FFF0741E2DF582EC51
:1044D6003401F58374FFF0741F2DF582EC3401F579
:1044E6008374FFF07C007D08EDAE047805C333CEFF
:1044F60033CED8F9FDAC062400F582EC3401F58301
:1045060074FFF074012DF582EC3401F58374FFF02D
:1045160074022DF582EC3401F58374FFF074032DDB
:10452600F582EC3401F58374FFF074042DF582EC0A
:104536003401F58374FFF074052DF582EC3401F532
:104546008374FFF074062DF582EC3401F58374FF55
:10455600F074072DF582EC3401F58374FFF07408CE
:104566002DF582EC3401F58374FFF0741A2DF58273
:10457600EC3401F58374E0F0741B2DF582EC340104
:10458600F58374FFF0741C2DF582EC3401F5837409
:10459600FFF0741D2DF582EC3401F58374FFF07481
:1045A6001E2DF582EC3401F58374FFF0741F2DF592
:1045B60082EC3401F58374FFF07C007D09EDAE04D6
:1045C6007805C333CE33CED8F9FDAC062400F58288
:1045D600EC3401F58374FFF074012DF582EC34019F
:1045E600F58374FFF074022DF582EC3401F58374C3
:1045F600FFF074032DF582EC3401F58374FFF0743B
:10460600042DF582EC3401F58374FFF074052DF565
:1046160082EC3401F58374FFF074062DF582EC34D8
:1046260001F58374FFF074072DF582EC3401F583F0
:1046360074FFF074082DF582EC3401F58374FFF0F5
:1046460074092DF582EC3401F58374FFF0741A2D8C
:10465600F582EC3401F58374E0F0741B2DF582ECE1
:104666003401F58374FFF0741C2DF582EC3401F5EA
:104676008374FFF0741D2DF582EC3401F58374FF0D
:10468600F0741E2DF582EC3401F58374FFF0741F6F
:104696002DF582EC3401F58374FFF07C007D0AED84
:1046A600AE047805C333CE33CED8F9FDAC0624006C
:1046B600F582EC3401F58374FFF074012DF582EC7C
:1046C6003401F58374FFF074022DF582EC3401F5A4
:1046D6008374FFF074032DF582EC3401F58374FFC7
:1046E600F074042DF582EC3401F58374FFF0740543
:1046F6002DF582EC3401F58374FFF074062DF582F6
:10470600EC3401F58374FFF074072DF582EC340167
:10471600F58374FFF074082DF582EC3401F583748B
:10472600FFF074092DF582EC3401F58374FFF07403
:104736000A2DF582EC3401F58374FFF0741A2DF519
:1047460082EC3401F58374E0F0741B2DF582EC34B1
:1047560001F58374FFF0741C2DF582EC3401F583AA
:1047660074FFF0741D2DF582EC3401F58374FFF0AF
:10477600741E2DF582EC3401F58374FFF0741F2D41
:10478600F582EC3401F58374FFF07C007D0BEDAE11
:10479600047805C333CE33CED8F9FDAC062400F534
:1047A60082EC3401F58374FFF074012DF582EC344C
:1047B60001F58374FFF074022DF582EC3401F58364
:0647C60074FFF074032DE6
:1047CC00F582EC3401F58374FFF074042DF582EC62
:1047DC003401F58374FFF074052DF582EC3401F58A
:1047EC008374FFF074062DF582EC3401F58374FFAD
:1047FC00F074072DF582EC3401F58374FFF0740826
:10480C002DF582EC3401F58374FFF074092DF582DB
:10481C00EC3401F58374FFF0740A2DF582EC34014D
:10482C00F58374FFF0740B2DF582EC3401F5837471
:10483C00FFF0741A2DF582EC3401F58374E0F074FA
:10484C001B2DF582EC3401F58374FFF0741C2DF5EF
:10485C0082EC3401F58374FFF0741D2DF582EC3479
:10486C0001F58374FFF0741E2DF582EC3401F58391
:10487C0074FFF0741F2DF582EC3401F58374FFF096
:10488C007C007D0CEDAE047805C333CE33CED8F965
:10489C00FDAC062400F582EC3401F58374FFF07452
:1048AC00012DF582EC3401F58374FFF074022DF5C3
:1048BC0082EC3401F58374FFF074032DF582EC3433
:1048CC0001F58374FFF074042DF582EC3401F5834B
:1048DC0074FFF074052DF582EC3401F58374FFF050
:1048EC0074062DF582EC3401F58374FFF074072DFA
:1048FC00F582EC3401F58374FFF074082DF582EC2D
:10490C003401F58374FFF074092DF582EC3401F554
:10491C008374FFF0740A2DF582EC3401F58374FF77
:10492C00F0740B2DF582EC3401F58374FFF0740CEC
:10493C002DF582EC3401F58374FFF0741A2DF58299
:10494C00EC3401F58374E0F0741B2DF582EC34012A
:10495C00F58374FFF0741C2DF582EC3401F583742F
:10496C00FFF0741D2DF582EC3401F58374FFF074A7
:10497C001E2DF582EC3401F58374FFF0741F2DF5B8
:10498C0082EC3401F58374FFF07C007D0DEDAE04F8
:10499C007805C333CE33CED8F9FDAC062400F582AE
:1049AC00EC3401F58374FFF074012DF582EC3401C5
:1049BC00F58374FFF074022DF582EC3401F58374E9
:1049CC00FFF074032DF582EC3401F58374FFF07461
:1049DC00042DF582EC3401F58374FFF074052DF58C
:1049EC0082EC3401F58374FFF074062DF582EC34FF
:1049FC0001F58374FFF074072DF582EC3401F58317
:104A0C0074FFF074082DF582EC3401F58374FFF01B
:104A1C0074092DF582EC3401F58374FFF0740A2DC2
:104A2C00F582EC3401F58374FFF0740B2DF582ECF8
:104A3C003401F58374FFF0740C2DF582EC3401F520
:104A4C008374FFF0740D2DF582EC3401F58374FF43
:104A5C00F0741A2DF582EC3401F58374E0F0741BBC
:104A6C002DF582EC3401F58374FFF0741C2DF58266
:104A7C00EC3401F58374FFF0741D2DF582EC3401D8
:104A8C00F58374FFF0741E2DF582EC3401F58374FC
:104A9C00FFF0741F2DF582EC3401F58374FFF07C6C
:104AAC00007D0EEDAE047805C333CE33CED8F9FDC0
:104ABC00AC062400F582EC3401F58374FFF074012C
:104ACC002DF582EC3401F58374FFF074022DF58220
:104ADC00EC3401F58374FFF074032DF582EC340192
:104AEC00F58374FFF074042DF582EC3401F58374B6
:104AFC00FFF074052DF582EC3401F58374FFF0742E
:104B0C00062DF582EC3401F58374FFF074072DF556
:104B1C0082EC3401F58374FFF074082DF582EC34CB
:104B2C0001F58374FFF074092DF582EC3401F583E3
:104B3C0074FFF0740A2DF582EC3401F58374FFF0E8
:104B4C00740B2DF582EC3401F58374FFF0740C2D8D
:104B5C00F582EC3401F58374FFF0740D2DF582ECC5
:104B6C003401F58374FFF0740E2DF582EC3401F5ED
:104B7C008374FFF0741A2DF582EC3401F58374E024
:104B8C00F0741B2DF582EC3401F58374FFF0741C6A
:104B9C002DF582EC3401F58374FFF0741D2DF58234
:064BAC00EC3401F58374F6
:104BB200FFF0741E2DF582EC3401F58374FFF0745E
:104BC2001F2DF582EC3401F58374FFF07C007D0F1C
:104BD200EDAE047805C333CE33CED8F9FDAC06244E
:104BE20000F582EC3401F58374FFF074012DF58237
:104BF200EC3401F58374FFF074022DF582EC34017C
:104C0200F58374FFF074032DF582EC3401F583749F
:104C1200FFF074042DF582EC3401F58374FFF07417
:104C2200052DF582EC3401F58374FFF074062DF541
:104C320082EC3401F58374FFF074072DF582EC34B5
:104C420001F58374FFF074082DF582EC3401F583CD
:104C520074FFF074092DF582EC3401F58374FFF0D2
:104C6200740A2DF582EC3401F58374FFF0740B2D78
:104C7200F582EC3401F58374FFF0740C2DF582ECAF
:104C82003401F58374FFF0740D2DF582EC3401F5D7
:104C92008374FFF0740E2DF582EC3401F58374FFFA
:104CA200F0740F2DF582EC3401F58374FFF0741A61
:104CB2002DF582EC3401F58374E0F0741B2DF5823E
:104CC200EC3401F58374FFF0741C2DF582EC340191
:104CD200F58374FFF0741D2DF582EC3401F58374B5
:104CE200FFF0741E2DF582EC3401F58374FFF0742D
:104CF2001F2DF582EC3401F58374FFF07A007B10EE
:104D0200EBAE027805C333CE33CED8F9FDAC062420
:104D120000F582EC3401F58374FFF074012DF58205
:104D2200EC3401F58374FFF074022DF582EC34014A
:104D3200F58374FFF074032DF582EC3401F583746E
:104D4200FFF074042DF582EC3401F58374FFF074E6
:104D5200052DF582EC3401F58374FFF074062DF510
:104D620082EC3401F58374FFF074072DF582EC3484
:104D720001F58374FFF074082DF582EC3401F5839C
:104D820074FFF074092DF582EC3401F58374FFF0A1
:104D9200740A2DF582EC3401F58374FFF0740B2D47
:104DA200F582EC3401F58374FFF0740C2DF582EC7E
:104DB2003401F58374FFF0740D2DF582EC3401F5A6
:104DC2008374FFF0740E2DF582EC3401F58374FFC9
:104DD200F0740F2DF582EC3401F58374FFF074103A
:104DE2002DF582EC3401F58374FFF074112DF582F8
:104DF200EC3401F583743FF0741A2DF582EC340122
:104E0200F58374E0F0741B2DF582EC3401F58374A4
:104E1200FFF0741C2DF582EC3401F58374FFF074FD
:104E22001D2DF582EC3401F58374FFF0741E2DF50F
:104E320082EC3401F58374FFF0741F2DF582EC349B
:104E420001F58374FFF00BBB00010AEB64124A60A8
:104E520003024D027C007D14EDAE047805C333CE0F
:104E620033CED8F9FDAC062411F582EC3401F5837A
:104E720074C0F074122DF582EC3401F58374FFF0E6
:104E820074132DF582EC3401F58374FFF074142D44
:104E9200F582EC3401F58374FFF074152DF582EC84
:104EA2003401F58374FFF074162DF582EC3401F5AC
:104EB2008374FFF074172DF582EC3401F58374FFCF
:104EC200F074182DF582EC3401F58374FFF0741937
:104ED2002DF582EC3401F58374FFF0741A2DF582FE
:104EE200EC3401F58374FFF0741B2DF582EC340170
:104EF200F58374FFF0741C2DF582EC3401F5837494
:104F0200FFF0741D2DF582EC3401F58374FFF0740B
:104F12001E2DF582EC3401F58374FFF0AF05741F8A
:104F22002FF582EE3401F58374FFF05390BF80FBBE
:014F3200225C
:03000000024F3379
:0C4F3300787FE4F6D8FD7581070240008D
:00000001FF
