:10400000E4FDFC9032007404F0E4FFFE7E0C7FB807
:10401000900100E4F0A3DFFCDEFA7E0B7FB8E4FC45
:10402000FDFE7805C333CE33CED8F9FDAC062400AF
:10403000F582EC3401F58374FFF074012DF582EC08
:104040003401F58374FFF074022DF582EC3401F530
:104050008374FFF074032DF582EC3401F58374FF53
:10406000F074042DF582EC3401F58374FFF07405CF
:104070002DF582EC3401F58374FFF074062DF58282
:10408000EC3401F58374FFF074072DF582EC3401F4
:10409000F58374FFF074082DF582EC3401F5837418
:1040A000FFF074092DF582EC3401F58374FFF07490
:1040B0000A2DF582EC3401F58374FFF0740B2DF5B5
:1040C00082EC3401F58374FFF0740C2DF582EC342E
:1040D00001F58374FFF0740D2DF582EC3401F58346
:1040E00074FFF0740E2DF582EC3401F58374FFF04B
:1040F000740F2DF582EC3401F58374FFF074102DEC
:10410000F582EC3401F58374FFF074112DF582EC27
:104110003401F583743FF0741A2DF582EC3401F507
:104120008374E0F0741B2DF582EC3401F58374FF89
:10413000F0741C2DF582EC3401F58374FFF0741DCE
:104140002DF582EC3401F58374FFF0741E2DF58299
:10415000EC3401F58374FFF0741F2DF582EC34010B
:10416000F58374FFF07C007D02EDAE047805C33367
:10417000CE33CED8F9FDAC062411F582EC3401F52E
:104180008374C0F074122DF582EC3401F58374FF52
:10419000F074132DF582EC3401F58374FFF0741480
:1041A0002DF582EC3401F58374FFF074152DF58242
:1041B000EC3401F58374FFF074162DF582EC3401B4
:1041C000F58374FFF074172DF582EC3401F58374D8
:1041D000FFF074182DF582EC3401F58374FFF07450
:1041E000192DF582EC3401F58374FFF0741A2DF566
:1041F00082EC3401F58374FFF0741B2DF582EC34EE
:1042000001F58374FFF0741C2DF582EC3401F58305
:1042100074FFF0741D2DF582EC3401F58374FFF00A
:10422000741E2DF582EC3401F58374FFF0AF057434
:104230001F2FF582EE3401F58374FFF05390BF8099
:02424000FB225F
:0300000002424277
:0C424200787FE4F6D8FD7581070240008B
:00000001FF
