:0841D600020A000002080001CA
:1041B0007E01D3EF648094804007EE25E0FE1F80EF
:0441C000F1AF062233
:104096007590BAE59030E7421241C4E4F50AF50B93
:1040A600903200E0FF3395E0FEC3E50B9FEE64809F
:1040B600F8E50A64809850E3D2AF750C01750DF4EB
:1040C600E50D150D7002150CE50D450C70F2C2AF2D
:1040D600050BE50B7002050A80C6C2AFE4F50CF5C8
:1040E6000D7400250DF582E50C3401F583E4F00529
:1040F6000DE50D7002050CE50D6420450C70E2E53A
:10410600DB5407FF1241B0E5DB131313541F2400E1
:0E411600F582E43401F583EFF0D2AF80BD22D4
:03002B0002400090
:10400000C0E0C083C082C0D075D000C000C004C072
:1040100005C006C00775E80075F8000509E50970D8
:10402000020508D3E509940FE508648094804006F2
:10403000750800750900C3E5099408E508648094D3
:104040008050057590F980037590F6E50925E0FD2F
:10405000E50833FCE50BAE0A7805C333CE33CED882
:10406000F92DFFEE3CFE74002FF582EE3401F5834E
:10407000E0F5E874012FF582EE3401F583E0F5F800
:104080005390FAD007D006D005D004D000D0D0D0BD
:0640900082D083D0E03273
:1041C400E4F5CAA2D533F5CA75C811C2C6D2AFD2B6
:0241D400AD221A
:0300000002412496
:0C412400787FE4F6D8FD75810D02416B38
:10413000024096E493A3F8E493A34003F68001F2CF
:1041400008DFF48029E493A3F85407240CC8C33390
:10415000C4540F4420C8834004F456800146F6DF5F
:10416000E4800B01020408102040809041D6E47ED8
:10417000019360BCA3FF543F30E509541FFEE49354
:10418000A360010ECF54C025E060A840B8E493A31B
:10419000FAE493A3F8E493A3C8C582C8CAC583CA46
:1041A000F0A3C8C582C8CAC583CADFE9DEE780BEFE
:0141DE0000E0
:00000001FF
