:104000009032007412F07D0D7C00EDAE047805C393
:1040100033CE33CED8F9FDAC062400F582EC340162
:10402000F58374FFF074012DF582EC3401F583748F
:10403000FFF074022DF582EC3401F58374FFF07407
:10404000032DF582EC3401F58374FFF074042DF533
:1040500082EC3401F58374FFF074052DF582EC34A5
:1040600001F58374FFF074062DF582EC3401F583BD
:1040700074FFF074072DF582EC3401F58374FFF0C2
:1040800074082DF582EC3401F58374FFF074092D6A
:10409000F582EC3401F58374FFF0740A2DF582EC9F
:1040A0003401F58374FFF0740B2DF582EC3401F5C7
:1040B0008374FFF0740C2DF582EC3401F58374FFEA
:1040C000F0740D2DF582EC3401F58374FFF0740E5D
:1040D0002DF582EC3401F58374FFF0740F2DF58219
:1040E000EC3401F58374FFF074102DF582EC34018B
:1040F000F58374FFF074112DF582EC3401F58374AF
:104100003FF0741A2DF582EC3401F58374E0F074FD
:104110001B2DF582EC3401F58374FFF0741C2DF532
:1041200082EC3401F58374FFF0741D2DF582EC34BC
:1041300001F58374FFF0741E2DF582EC3401F583D4
:1041400074FFF0741F2DF582EC3401F58374FFF0D9
:104150007C007D0EEDAE047805C333CE33CED8F9A6
:10416000FDAC062411F582EC3401F58374C0F074C3
:10417000122DF582EC3401F58374FFF074132DF5E4
:1041800082EC3401F58374FFF074142DF582EC3465
:1041900001F58374FFF074152DF582EC3401F5837D
:1041A00074FFF074162DF582EC3401F58374FFF082
:1041B00074172DF582EC3401F58374FFF074182D1B
:1041C000F582EC3401F58374FFF074192DF582EC5F
:1041D0003401F58374FFF0741A2DF582EC3401F587
:1041E0008374FFF0741B2DF582EC3401F58374FFAA
:1041F000F0741C2DF582EC3401F58374FFF0741D0E
:104200002DF582EC3401F58374FFF0741E2DF582D8
:10421000EC3401F58374FFF0741F2DF582EC34014A
:10422000F58374FFF07C007D0FEDAE047805C33399
:10423000CE33CED8F9FDAC062400F582EC3401F57E
:104240008374FFF074012DF582EC3401F58374FF63
:10425000F074022DF582EC3401F58374FFF07403E1
:104260002DF582EC3401F58374FFF074042DF58292
:10427000EC3401F58374FFF074052DF582EC340104
:10428000F58374FFF074062DF582EC3401F5837428
:10429000FFF074072DF582EC3401F58374FFF074A0
:1042A000082DF582EC3401F58374FFF074092DF5C7
:1042B00082EC3401F58374FFF0740A2DF582EC343E
:1042C00001F58374FFF0740B2DF582EC3401F58356
:1042D00074FFF0740C2DF582EC3401F58374FFF05B
:1042E000740D2DF582EC3401F58374FFF0740E2DFE
:1042F000F582EC3401F58374FFF0740F2DF582EC38
:104300003401F58374FFF074102DF582EC3401F55F
:104310008374FFF074112DF582EC3401F583743F42
:10432000F0741A2DF582EC3401F58374E0F0741BFF
:104330002DF582EC3401F58374FFF0741C2DF582A9
:10434000EC3401F58374FFF0741D2DF582EC34011B
:10435000F58374FFF0741E2DF582EC3401F583743F
:10436000FFF0741F2DF582EC3401F58374FFF07CAF
:10437000007D10EDAE047805C333CE33CED8F9FD01
:10438000AC062411F582EC3401F58374C0F074128C
:104390002DF582EC3401F58374FFF074132DF58252
:1043A000EC3401F58374FFF074142DF582EC3401C4
:1043B000F58374FFF074152DF582EC3401F58374E8
:1043C000FFF074162DF582EC3401F58374FFF07460
:1043D000172DF582EC3401F58374FFF074182DF578
:0643E00082EC3401F583BC
:1043E60074FFF074192DF582EC3401F58374FFF037
:1043F600741A2DF582EC3401F58374FFF0741B2DCD
:10440600F582EC3401F58374FFF0741C2DF582EC13
:104416003401F58374FFF0741D2DF582EC3401F53B
:104426008374FFF0741E2DF582EC3401F58374FF5E
:10443600F0AF05741F2FF582EE3401F58374FFF09B
:014446002253
:0300000002444770
:0C444700787FE4F6D8FD75810702400084
:00000001FF
